:020000020000FC
:1000000037D03CD0A5D010EA46D010E04BD04AD033
:1000100013E748D011E646D01AE644D015E642D0A0
:1000200015E640D016E73ED06CD0C0EDD7E077D0D3
:10003000E0E0FEE310EA3DD064D0E0E0FEE306E05D
:1000400000930E3E119199D000910E3E0A950093B7
:100050000E3E0030B9F71AE090D01DE08ED0C0ED12
:10006000D7E05DD0E0E0FEE306E000930E3EEACF8D
:1000700008ED04BF01E000936100089508E20093D9
:10008000160803E00093130808E00093140801E049
:10009000009315080895012F0093170836D004FD2A
:1000A00030D00895012F009318082FD004FD29D0D7
:1000B0000895012F0093170828D010E0012F009316
:1000C000180823D010E0012F009318081ED000E07C
:1000D0000093140811EA012F009317081BD006E0C3
:1000E000023040F00A95502E00911808019312D06A
:1000F0005A94D1F707E0009314080091180801936F
:10010000089503E00093140808950091150806FF70
:10011000FCCF08950091150807FFFCCF089507D084
:100120002197E9F7089503D00A95E9F70895CF9349
:10013000DF93CFEBD9E02197F1F7DF91CF910895CD
:1001400003D00A95E9F70895000000000000089523
:1001500001E000930102009100040260009300049A
:1001600002E00093050406E410E1009308081093F0
:10017000090800EC00930608089500910408007235
:1001800005FFFBCF012F009302080895009104089A
:10019000007807FFFBCF1091010810910008089527
:00000001FF
